:100000000C946C060C9494060C9494060C94940630
:100010000C9494060C9494060C9494060C949406F8
:100020000C9494060C9494060C9494060C949406E8
:100030000C9494060C9494060C9494060C949406D8
:100040000C9442160C9494060C9425070C94900E74
:100050000C9494060C9494060C9494060C949406B8
:100060000C9494060C94940611007F9629000100CC
:100070007F9628003A0155C0021010C10141C50405
:1000800000228040360168B00100B102B011B40115
:1000900002B60302023BB701C63A0155F704A95163
:1000A0002C82C0020D0DC1024300C20100C5040034
:1000B000480048B40100B60302023BE00F0F211CC8
:1000C0000B0E08499838091103141000E10F0F2F87
:1000D0002B0C0E06477637071104231E00B00100D3
:1000E000B30402000000B40100D003074218D1039A
:1000F000000710D2020102D3020102D4020102C0A1
:1001000005123B000211C103101088C50103C6018E
:1001100002C80C003236450616377577540C00CCF1
:100120000100F603010100CF03008130ED046403F8
:100130001281E803851078CB05392C003402F701D1
:1001400020EA020000B00100B102001BB40100C0AF
:100150000121C10111C5023F3CC701B5360148F27A
:100160000100260101E00F0F26240B0E0954A846BA
:100170000C17090F0700E10F00191B0410072A478D
:100180003903060630380F360100B80101C0010EF0
:10019000B00100C10410100202C0060035000001C9
:1001A00002C50104D2020104CA0100EA0180B903B8
:1001B000FF83577F967F96B60125C0065050013CBD
:1001C0001E08B4070240002A2A0D787F01F20B16A0
:1001D00016030808080810041616FD03110235B2AC
:1001E000050C0C003333B70135BB012BC00104C231
:1001F0000201FFC30111C40120C6010FD002A4A156
:10020000E00ED000050E150D3743470915121619DB
:10021000E10ED000050D0C062D44400E1C181619D9
:100220003A01557F0AB00103E2013FC00122E20119
:1002300000B00100C0010AB0010000000000000091
:1002400000000000000000000000FFFF0F0000049D
:100250000062080008080003000C01030B5A0203A7
:100260000609030317100403002305030017060300
:1002700009630703090C08030C100903322210005C
:10028000160011000101120000001300010000011E
:100290003003010137020301000D800200610201F9
:1002A000B0C1FFFF320001000001020000010300A5
:1002B0003010090001000C000000900000800F00C9
:1002C0000000100200001102EF00120200001302F1
:1002D0008F01000500000105000002055F00010418
:1002E000010004040000FFFF320007000001FFFFCF
:1002F00032000002000001020000000000000000C7
:1003000000000000000000000100A4000100FFFF49
:100310000A006000002708000808300014023100BD
:100320001537320004063300160E34001122350052
:10033000001536000785370007143800031439000C
:100340002000900015001000100411003702290051
:1003500046002A0046000700000012008901130031
:100360000011FFFF96001200B90101000001020018
:10037000000203003010090001000A0000000D0017
:1003800000000E003000610001006A0000008000E3
:1003900000008100000082005F00920000019300D5
:1003A0000107FFFF500007000001E500F0780100A1
:1003B00000010200000203003010040000000500EC
:1003C000000008000702090000000A0000000C00FD
:1003D00000000D0000000F000000100000001100E0
:1003E0000700120000001300000007000100FFFFDB
:1003F000C8001000901611002702FFFF3200120003
:100400000D00FFFF32001300001229000A002B002C
:100410000D00FFFF3200200000002100000030002E
:1004200000003100040432000300350005043600EA
:1004300008083700070438000303390007073C00A9
:1004400004053D00080860000027610001006A0003
:100450000000800000008100000082000000830096
:100460000000840000008500000090001000920051
:10047000000007003301E5000080000001000100DA
:100480000001020000070300301004000000080013
:100490000202090000000A0000000C0000000D002C
:1004A00000000F0000001000000011000700120003
:1004B000000013000000FFFF32001000B017110011
:1004C0000700FFFF0A0012003A01FFFF0A001300B5
:1004D000001A29000C00FFFF0A0030000000310064
:1004E0000505320004003500060036000707370016
:1004F000050138000200390007073C0004073D00F1
:100500000708600000A7610001006A0000002100E8
:100510000000200000008000000081000000820038
:1005200000008300000084000000850000009000AF
:100530001000920000009300030095001001970046
:1005400000009800000007007301FFFF3200EA027C
:100550000020EC020CC4E80138E90110F10101F2BD
:100560000110400D010000100E240450021319194F
:1005700016500E1B312F3F3F3E2F7B0906060C1DE8
:10058000CC1B011B1A010124012F250157230188CF
:100590001801341901010101001F01887F051F01A5
:1005A000807F031F01907F051F01D07F0517010584
:1005B0003601002801387F2828013F160118FF0066
:1005C0000100F3000800000001000100000102002A
:1005D00000070300301008000203090000001000AB
:1005E0000000110007001200000013000000FFFFD0
:1005F00032001000B014FFFF0A0011000700FFFFD7
:100600000A0012008E001300000C29001500FFFFE5
:100610000A00300000003100070132000000350000
:1006200003023600020437000000380007023900D8
:1006300000003C0003023D000304600000A76100CD
:1006400001009000290007003301FFFF3200150070
:1006500030009A0010001100200010002834120011
:10066000020013003810FFFF280012001200FFFFE5
:1006700028001000203413004530FFFF46003000F2
:100680000000310002043200070333000403340089
:100690000400350001043600070737000503380061
:1006A00010063900100601000001020000030300DB
:1006B0003010080008080A000800600000276100E8
:1006C000010090003E019200000193000001A00093
:1006D0000030A30010000700010007002100070000
:1006E0002300070033000700330111001A00120035
:1006F000213113006C001400494210000008FFFF74
:100700000A0011001A01FFFF0A0011001A03FFFF7F
:100710000A0011001A07FFFF0A0011001A0FFFFF5D
:100720000A0011003A0FFFFF1E000100280102001D
:1007300000010300301007001210080003030B0033
:1007400000110C0000000F000118150020005000DF
:100750000101510003065200080453000000540038
:10076000050655000604560003035700030358000E
:1007700010005900001007001200FFFF28000700BA
:1007800013000700170000000000240027002A00C3
:100790000000000800020100000304070000000040
:1007A0000000000000000000003E5B4F5B3E3E6B1F
:1007B0004F6B3E1C3E7C3E1C183C7E3C181C577DFB
:1007C000571C1C5E7F5E1C00183C1800FFE7C3E747
:1007D000FF0018241800FFE7DBE7FF30483A060E59
:1007E0002629792926407F050507407F05253F5AA0
:1007F0003CE73C5A7F3E1C1C08081C1C3E7F142210
:100800007F22145F5F005F5F06097F017F006689BA
:10081000956A606060606094A2FFA29408047E0400
:100820000810207E201008082A1C08081C2A080826
:100830001E101010100C1E0C1E0C30383E383006E6
:100840000E3E0E06000000000000005F00000007E2
:10085000000700147F147F14242A7F2A1223130810
:10086000646236495620500008070300001C2241EC
:10087000000041221C002A1C7F1C2A08083E080890
:100880000080703000080808080800006060002040
:10089000100804023E5149453E00427F4000724923
:1008A0004949462141494D331814127F10274545C7
:1008B00045393C4A494931412111090736494949DD
:1008C00036464949291E000014000000403400004B
:1008D00000081422411414141414004122140802B4
:1008E000015909063E415D594E7C1211127C7F4927
:1008F0004949363E414141227F4141413E7F49497C
:1009000049417F090909013E414151737F080808A7
:100910007F00417F41002040413F017F0814224178
:100920007F404040407F021C027F7F0408107F3ED2
:100930004141413E7F090909063E4151215E7F093F
:10094000192946264949493203017F01033F4040A6
:10095000403F1F2040201F3F4038403F6314081491
:100960006303047804036159494D43007F414141C9
:100970000204081020004141417F040201020440AA
:1009800040404040000307080020545478407F282E
:100990004444383844444428384444287F38545424
:1009A000541800087E090218A4A49C787F08040447
:1009B0007800447D40002040403D007F10284400E6
:1009C00000417F40007C047804787C080404783877
:1009D00044444438FC1824241818242418FC7C08A7
:1009E000040408485454542404043F44243C404024
:1009F000207C1C2040201C3C4030403C44281028D7
:100A0000444C9090907C4464544C4400083641001F
:100A10000000770000004136080002010204023C99
:100A20002623263C1EA1A161123A4040207A385468
:100A300054555921555579412254547842215554E1
:100A4000784020545579400C1E5272123955555534
:100A500059395454545939555454580000457C411F
:100A60000002457D420001457C407D1211127DF05F
:100A7000282528F07C545545002054547C547C0A89
:100A8000097F4932494949323A4444443A324A4852
:100A900048303A4141217A3A42402078009DA0A056
:100AA0007D3D4242423D3D4040403D3C24FF2424A8
:100AB000487E4943662B2FFC2F2BFF0929F620C0C7
:100AC000887E090320545479410000447D41304818
:100AD000484A32384040227A007A0A0A727D0D195B
:100AE000317D2629292F28262929292630484D40BD
:100AF00020380808080808080808382F10C8ACBAB9
:100B00002F102834FA00007B000008142A14222237
:100B1000142A14085500550055AA55AA55AAFF5580
:100B2000FF55FF000000FF00101010FF0014141408
:100B3000FF001010FF00FF1010F010F0141414FC50
:100B4000001414F700FF0000FF00FF1414F404FC6D
:100B5000141417101F10101F101F1414141F00104E
:100B60001010F0000000001F101010101F101010C7
:100B700010F010000000FF101010101010101010D6
:100B8000FF10000000FF140000FF00FF00001F1016
:100B9000170000FC04F414141710171414F404F4D0
:100BA0000000FF00F714141414141414F700F714C1
:100BB0001414171410101F101F141414F414101010
:100BC000F010F000001F101F0000001F14000000B4
:100BD000FC140000F010F01010FF10FF141414FFAC
:100BE000141010101F00000000F010FFFFFFFFFFA7
:100BF000F0F0F0F0F0FFFFFF0000000000FFFF0F3B
:100C00000F0F0F0F3844443844FC4A4A4A347E02DE
:100C1000020606027E027E0263554941633844445F
:100C20003C04407E201E2006027E020299A5E7A514
:100C3000991C2A492A1C4C7201724C304A4D4D3085
:100C40003048784830BC625A463D3E494949007EAA
:100C50000101017E2A2A2A2A2A44445F4444405141
:100C60004A444040444A51400000FF0103E080FFF5
:100C7000000008086B6B083612362436060F090F81
:100C800006000018180000001010003040FF01019D
:100C9000001F01011E00191D1712003C3C3C3C00C6
:100CA0000000000001020408102040800102040836
:100CB0001020010204081020000000002500280078
:100CC0002B000404040404040404020202020202CD
:100CD000030303030303311E11241FBECFEFD8E02B
:100CE000DEBFCDBF11E0A0E0B1E0E0EEF2E402C073
:100CF00005900D92A234B107D9F722E0A2E4B1E049
:100D000001C01D92A833B207E1F716E0CCE6D6E0A9
:100D100004C02197FE010E94531FCB36D107C9F7AB
:100D20000E948C160C946E210C940000FC01538DD3
:100D3000448D252F30E0842F90E0821B930B5417B5
:100D400010F0CF96089501970895FC01918D828D42
:100D5000981761F0828DDF01A80FB11D5D968C910F
:100D6000928D9F5F9F73928F90E008958FEF9FEF1A
:100D70000895FC01918D828D981731F0828DE80FD6
:100D8000F11D858D90E008958FEF9FEF0895FC0190
:100D9000918D228D892F90E0805C9F4F821B91095D
:100DA0008F739927089580E090E0892B29F00E94A5
:100DB000860E81110C9400000895EF92FF920F931C
:100DC0001F93DC01ED91FC9100A0F1A1E02D7801D1
:100DD00001E010E009951F910F91FF90EF900895A9
:100DE000EF92FF920F931F93DC01ED91FC9100A015
:100DF000F1A1E02D7801890121E030E009951F91F2
:100E00000F91FF90EF900895089580E090E008958D
:100E1000EF92FF920F931F93DC011A960D911C9194
:100E20001B9718962D913C911997ED91FC9100A07C
:100E3000F1A1E02D7B0140E050E060E070E0099519
:100E40001F910F91FF90EF9008951F920F920FB690
:100E50000F9211242F938F939F93EF93FF93E09121
:100E60005801F09159018081E0915E01F0915F019C
:100E700082FD12C09081809161018F5F8F732091FC
:100E80006201821751F0E0916101F0E0E85BFE4FF2
:100E9000958F8093610101C08081FF91EF919F91B7
:100EA0008F912F910F900FBE0F901F901895FC01FE
:100EB000848DDF01A80FB11DA35ABF4F2C91848DE3
:100EC00090E001968F739927848FA689B7892C9318
:100ED000A089B1898C91837080648C93938D848D6B
:100EE000981306C00288F389E02D80818F7D80836E
:100EF0000895EF92FF920F931F93CF93DF93EC012E
:100F000081E0888F9B8D8C8D981305C0E889F989C5
:100F1000808185FD26C0F62E0B8D10E00F5F1F4FE0
:100F20000F731127E02E8C8DE8120CC00FB607FC52
:100F3000FACFE889F989808185FFF5CFCE010E943B
:100F40005707F1CF8B8DFE01E80FF11DE35AFF4FDC
:100F5000F0829FB7F8940B8FEA89FB8980818062C9
:100F60000AC09FB7F894EE89FF896083E889F98900
:100F700080818370806480839FBF81E090E0DF91F7
:100F8000CF911F910F91FF90EF900895CF93DF9332
:100F9000EC01888D8823C9F0EA89FB89808185FD71
:100FA00005C0A889B9898C9186FD0FC00FB607FCD2
:100FB000F5CF808185FFF2CFA889B9898C9185FF13
:100FC000EDCFCE010E945707E7CFDF91CF91089573
:100FD0004398429825B12C7F392F3370232B25B9A4
:100FE0002BB12370392F3C7F232B2BB94198419A89
:100FF00025B12C7F382F3370232B25B92BB12370CB
:10100000382F3C7F232B2BB94198419A429AFA0101
:101010005FEF560F1616B4F5219135B13C7F422F84
:101020004370342B35B93BB133702C7F232B2BB954
:101030004198419A511102C0652FEACF2091430196
:101040002223D1F30196429825B12C7F392F33709A
:10105000232B25B92BB12370392F3C7F232B2BB9A0
:101060004198419A25B12C7F382F3370232B25B915
:101070002BB12370382F3C7F232B2BB94198419AF9
:10108000429ADACF439A0895DF92EF92FF920F933C
:101090001F93CF93DF93CDB7DEB768970FB6F89461
:1010A000DEBF0FBECDBF7C018B011016110654F5BB
:1010B000F70184913196D490F2E0EF0EF11C8F3756
:1010C00041F46D2D70E080E090E00E940816D12C74
:1010D00013C02E2DDE011196F701AD019E2F921B3C
:1010E0009D1520F494919D933196F8CFED0CF11C51
:1010F0006D2D90E00E94E807ED2DF0E032960E1B7A
:101100001F0BD3CF68960FB6F894DEBF0FBECDBFCE
:10111000DF91CF911F910F91FF90EF90DF90089595
:101120004398429825B12C7F392F3370232B25B952
:101130002BB123709C7F922B9BB94198419A95B11A
:101140009C7F282F2370922B95B99BB193708C7F35
:10115000892B8BB94198419A429A85B18C7F972F00
:101160009370892B85B98BB183707C7F782B7BB989
:101170004198419A85B18C7F962F9370892B85B9C0
:101180008BB183706C7F682B6BB94198419A439AFD
:1011900008950F931F93CF93DF93EC018B011016EB
:1011A0001106B4F4FE01859194912496FE013297C4
:1011B000659174918F3F2FEF920729F480E090E0C2
:1011C0000E94081602C00E94900804501109E7CF3F
:1011D000DF91CF911F910F910895CF93DF931F92CD
:1011E000CDB7DEB7FC01858D968D929591709627CF
:1011F000692F70E072A361A380FF2DC0809143012D
:101200008823E1F0278D30A1273483E8380719F0CF
:101210002235324531F4911102C082E007C086E0E8
:1012200005C0911102C08AE001C088E08983AE0147
:101230004F5F5F4F61E081E090E00AC0911103C011
:1012400080E290E002C081E290E040E050E060E0A7
:101250000E94E8072AC0878D90A1833927E792076B
:10126000E1F040F4843521E0920779F08032944532
:10127000C1F413C0863223E9920779F0893025EB57
:10128000920759F08532924961F4660F771F660F15
:10129000771F636187E090E006C0626081E094E0C0
:1012A00002C081E690E00E9490080F90DF91CF91FC
:1012B00008958F929F92AF92BF92CF92DF92EF925A
:1012C000FF920F931F93CF93DF9300D000D0CDB741
:1012D000DEB77C015B016A014901FC01878D90A1A9
:1012E0008732F3E99F0799F4F7018689823031F458
:1012F000F0E2CF0ED11C005E1F4F1EC08330E1F420
:1013000020E2A20EB11C80E2880E911C15C086322C
:10131000954191F4F701868980FF0EC0C801841BB6
:10132000950B19F40F5F1F4F07C06217730721F465
:101330004B01880E991E8A01F701858D80FF3BC005
:1013400085A5B982AA829B828C82AE014F5F5F4FD6
:1013500064E090E00E94E807F70181A9D982CA827F
:101360001B830C83AE014F5F5F4F64E090E00E94EF
:10137000E80780914301882309F459C0F701878D5C
:1013800090A18536910509F052C0B982AA82AE01BA
:101390004F5F5F4F62E087A190A50E94E807D98266
:1013A000CA82AE014F5F5F4F62E0F70181A592A54F
:1013B0000E94E8073CC0B501F70187A190A50E94F3
:1013C0009008B601F70181A592A50E9490088A14A1
:1013D0009B0419F40C151D0551F1F701858D85FF4E
:1013E0000EC0868980FF06C0102F0027C02AD12A90
:1013F000860105C0982C8824A828B9284501B50184
:10140000F70185A596A50E949008B601F70181A96C
:1014100092A90E949008B401F70187A590A90E94A3
:101420009008B801F70183A994A90E9490080F9031
:101430000F900F900F90DF91CF911F910F91FF9020
:10144000EF90DF90CF90BF90AF909F908F900895D6
:10145000AF92BF92CF92DF92EF92FF920F931F93C2
:10146000CF93DF93EC0180914201882349F0C701BB
:101470008F719927880F991FE1ECEE22E82AF92A4B
:1014800037FF05C0620F731F319521953109260F73
:10149000371F77FF02C060E070E08885998582176A
:1014A00093070CF49C016901C61AD70A17FF05C0FF
:1014B000400F511F119501951109040F151F57FF7A
:1014C00002C040E050E08A859B85801791070CF4AC
:1014D0008C015801A41AB50A015011092150310993
:1014E000CE010E945909439842988BA59CA525B12D
:1014F0002C7F392F3370232B25B92BB123709C7F80
:10150000922B9BB94198419A95B19C7F282F2370CB
:10151000922B95B99BB193708C7F892B8BB9419895
:10152000419A429ACA14DB042CF49C2D8D2D65013E
:10153000A92EB82E4F2D43709F2D9C7F5E2D53708A
:101540006E2D6C7F1A141B04E4F4960185B18C7F18
:10155000842B85B98BB18370892B8BB94198419AC3
:1015600085B18C7F852B85B98BB18370862B8BB928
:101570004198419A2150310949F721E0A21AB10856
:10158000E1CF439A8D8D80FF08C08F8D98A1863260
:10159000954191F48E8980FF0FC00A851B8501500B
:1015A0001109288539852150310940E050E060E07B
:1015B00070E0CE010E945909DF91CF911F910F91E8
:1015C000FF90EF90DF90CF90BF90AF900895EF9293
:1015D000FF920F931F93CF93DF937C01E90177FD77
:1015E0002AC057FD28C0FC018085918568177907BE
:1015F00014F58285938548175907ECF480914201D0
:10160000882341F0CE018F719927880F991FC17CE3
:10161000C82BD92B8A019B01C7010E945909BE0121
:10162000F70183A594A5DF91CF911F910F91FF90B2
:10163000EF900C949008DF91CF911F910F91FF9044
:10164000EF900895EF92FF920F931F93CF93DF9344
:10165000CDB7DEB72A970FB6F894DEBF0FBECDBF69
:101660007C01862F8370D70156968C935697462F10
:10167000417060FF05C016962D913C91179703C0ED
:10168000F70124813581D70119963C932E93189741
:10169000442329F014962D913C91159703C0F7012E
:1016A00026813781D7011B963C932E931A9782305F
:1016B00041F0833041F0813011F088E405C088E2C8
:1016C00003C088E901C088EF8A87F701258D368D30
:1016D00030FF03C08A8580588A8731FF04C09A850D
:1016E00080E489278A8733FF04C09A8588E08927A8
:1016F0008A87D7015F968D919C91909720FFD7C0E4
:101700008431B8E69B07F9F49A85892F881F8827CA
:10171000881F8295880F880F807C96FD02C020E08C
:1017200001C020E298729A871F828260822B88878C
:101730008BE38987AE01495F5F4F63E086EB90E002
:101740000E94E8078BC08336E9E19E0741F08138AB
:10175000F4E99F0721F0813125E1920709F52A85F7
:1017600027FF02C021602A872A8526FF02C0226047
:101770002A87833639E1930719F48A858F730EC05F
:10178000813844E9940719F48A858F7207C0813142
:10179000954109F063C08A858F7E806C8A875EC020
:1017A00020914301222309F459C062E070E0F7015F
:1017B00070A767A326E030E032A721A7E2E2F0E0BD
:1017C000D7019C96FC93EE939B979E967C936E9389
:1017D0009D9764E070E0D0967C936E939F97D2962D
:1017E0003C932E93D19728E030E0D4963C932E93EF
:1017F000D3978536910521F58A85982F916084FDD0
:1018000002C09A8703C083ED89278A87442351F059
:1018100082E890E0F70190A787A380E890E092A784
:1018200081A738C280E890E0D70198969C938E9368
:10183000979782E890E09A969C938E9399972AC204
:101840008235924501F58A85982F926084FD02C009
:101850009A8719C084ED89278A8715C02AE230E06B
:10186000F70130A727A38BE290E092A781A74CE273
:1018700050E054A743A736A725A730AB27A792ABC4
:1018800081AB94AB83AB80914301811103C286E3AA
:1018900090E0AE01465F5F4F61E00E94E8078A85F5
:1018A00090E0D70194969C938E939397E6C02A85F7
:1018B0008339B7E79B0709F448C050F48435F1E059
:1018C0009F0781F0803234E5930709F081C03DC065
:1018D000863243E99407C9F18930A5EB9A0709F0EC
:1018E00077C033C087E390E0F70196A785A786E32A
:1018F00090E090AB87A789E390E092AB81AB88E35F
:1019000090E094AB83AB80E290E090A787A381E264
:1019100090E092A781A782E290E094A783A7822F0C
:10192000022E000C990B8827990F881F9927982F52
:101930008827990F26FD03C060E070E002C060E0D8
:1019400071E08862682B792B82C040E052E0D701B9
:1019500098965C934E93979741E052E09A965C93E9
:101960004E93999742E052E09C965C934E939B97DE
:1019700040E152E09E965C934E939D9741E152E088
:10198000D0965C934E939F9742E152E0D2965C933F
:101990004E93D19743E152E0D4965C934E93D39704
:1019A00027FD03C020E030E002C020E030E88632AE
:1019B000B3E99B0731F08032944519F060E07AE694
:1019C00002C060E075E3622B732B80E094E035C0C9
:1019D00080E290E0D70198969C938E93979781E24E
:1019E00090E09A969C938E93999782E290E09C96D1
:1019F0009C938E939B9780E590E09E969C938E930C
:101A00009D9781E590E0D0969C938E939F9782E579
:101A100090E0D2969C938E93D19783E590E0D496F4
:101A20009C938E93D39727FD03C060E070E002C0C3
:101A300060E070E8776280E690E00E9490088A8516
:101A400086FD03C060E070E002C060E071E081E00C
:101A500090E00E9490088A8585FD03C060E070E0F8
:101A600002C068E070E083FD70616063F70174A3F9
:101A700063A383E090E00E949008D70156968C9172
:101A8000569780FF36C05D968D919C915E9792FD32
:101A900030C097968D919C91989799962D913C91F5
:101AA0009A9798963C932E9397979A969C938E9399
:101AB00099979D968D919C919E97D1962D913C9151
:101AC000D2979E963C932E939D97D2969C938E93FD
:101AD000D1979F968D919C91D097D3962D913C91C3
:101AE000D497D0963C932E939F97D4969C938E93A5
:101AF000D397F7010285138501501109208531859F
:101B00002150310940E050E060E070E0C7010E94E0
:101B10005909D70116966D917C9117975F968D9113
:101B20009C9190978732B3E99B0741F4F70126898E
:101B30002250223018F400E210E002C000E010E071
:101B40008732F3E99F0729F022273327201B310B27
:101B500004C020E230E0201B310BD7015D964C9190
:101B600040FF49C01982102F0A837B836C833D8319
:101B70002E8380914301811103C083E390E002C072
:101B80008EE090E0AE014F5F5F4F66E00E94E80795
:101B900019821A8380914301811103C087E390E089
:101BA00002C084E190E0AE014F5F5F4F62E00E94AF
:101BB000E80780914301882389F01982F701878D16
:101BC00090A18734934819F081E090E002C088E149
:101BD00090E0AE014F5F5F4F61E00AC0D7015D96B4
:101BE0008C9180FF5AC040E050E060E083E190E0DB
:101BF0000E94E80752C08339B7E79B0779F160F488
:101C00008032F4E59F0751F1833827E7920781F08E
:101C10008435914089F510C0863243E99407F1F08C
:101C20008930A5EB9A07D1F08532924929F504C095
:101C3000F70161A172A124C0600F711F6150710989
:101C400081E390E00E949008B80182E390E00E9456
:101C5000900860E070E083E390E019C0D7019196AE
:101C60006D917C919297626081E094E00E9490086F
:101C7000B80184E094E00BC0F70161A172A1626039
:101C800081E690E00E949008B8018AE690E00E9408
:101C9000900803C086E190E0FCCD2A960FB6F89438
:101CA000DEBF0FBECDBFDF91CF911F910F91FF908F
:101CB000EF900895CF92DF92EF92FF920F931F93D0
:101CC000CF93DF936C017A018B01C0E0D0E0CE1599
:101CD000DF0581F0D8016D918D01D601ED91FC9168
:101CE0000190F081E02DC6010995892B11F0219614
:101CF000EECF7E01C701DF91CF911F910F91FF9031
:101D0000EF90DF90CF9008950E94692188E491E0E0
:101D10000E94C70621E0892B09F420E0822F089554
:101D20001F920F920FB60F9211242F933F934F9350
:101D30005F936F937F938F939F93AF93BF93EF9333
:101D4000FF9388E491E00E945707FF91EF91BF91C4
:101D5000AF919F918F917F916F915F914F913F9143
:101D60002F910F900FBE0F901F9018952F923F92BA
:101D70004F925F926F927F928F929F92AF92BF929B
:101D8000CF92DF92EF92FF920F931F93CF93DF9347
:101D9000CDB7DEB76B970FB6F894DEBF0FBECDBFE1
:101DA0009B8F8A8F1B014A01D22E19870887370122
:101DB000A982DC0159962D913C915A972115310544
:101DC00009F0FFC018968D919C91199768177907B3
:101DD0000CF0E7C11A968D919C911B9748175907F3
:101DE0000CF0DFC1EC2DF0E0FB83EA839B0146E0C1
:101DF000C49E200D311D11243D872C871216130619
:101E00000CF0CFC16A2D70E07B876A8783E0660F94
:101E1000771F8A95E1F77F876E87CB01880D991D23
:101E2000181619060CF0BDC158968C91811104C08A
:101E30008FEA8D1508F4D394AA8DBB8DED91FC919A
:101E400011970284F385E02DCD010995B5E0DB9E65
:101E5000C0011124EC2DF0E0F98BE88B91012B5F90
:101E60003F4F3B8B2A8B3D822C822101AC014219D2
:101E700053095D8B4C8B7981672F70E07F8B6E8B64
:101E8000C4010896998F888FEC89FD89E40DF51DB2
:101E9000EC55F84FD49054019F828E82D0FE16C02C
:101EA000AA8DBB8DED91FC91B1E0CB1209C02981C7
:101EB000213031F40484F585E02D2885398519C059
:101EC0000684F785E02DE884F9841DC0488559858E
:101ED0004615570519F1AA8DBB8DED91FC91B1E026
:101EE000CB120DC02981213051F40484F585E02DF9
:101EF0009301A501B2018A8D9B8D09950FC00684BF
:101F0000F785E02D73010A851B852A813B814E816F
:101F10005F816C817D818A8D9B8D0995D6943FEF81
:101F2000A31AB30A4E815F816E897F89460F571FBE
:101F30005F834E83888D998DA816B90609F0AECFC0
:101F40009FEF491A590AAC81BD81E889F989AE0F22
:101F5000BF1FBD83AC832A893B894216530609F013
:101F600093CF488559854615570509F4F8C0AA8DC1
:101F7000BB8DED91FC91B1E0CB1211C029812130D4
:101F800071F4B1016B5F7F4F0088F189E02D83010F
:101F900028E030E0A4018A8D9B8D0995E0C06C8516
:101FA0007D854A815B81641B750B0684F785E02D76
:101FB00073010E851F859A01A4018A8D9B8D099559
:101FC000CEC0F9013496E491DE1AF901329685917A
:101FD0009491B7E0DB9E800D911D1124F9012591AC
:101FE00034913B8B2A8BFC01259134915901FC01E2
:101FF00032965490319634913C8732967490319653
:10200000149141E04C1518F05981523068F0672D59
:10201000072C000C770B7D836C83812F012E000C25
:10202000990B9B838A8304C01B821A821D821C82A7
:10203000AA8DBB8DED91FC9111970284F385E02D63
:10204000CD010995412CD12C612CF981EF2FF0E0C5
:10205000FF83EE832C2D30E03B872A87A401410FBC
:10206000511D17FD5A955F8B4E8BB101670D711D88
:1020700077FC7A95798F688F7C85671608F06FC03A
:10208000262D30E04A815B81420F531FAE81BF8114
:10209000A49FC001A59F900DB49F900D1124F40141
:1020A000E80FF91FF98BE88B842D712C4E895F891D
:1020B000420F531F5D8B4C8B751408F04DC051E0DF
:1020C000580F5E87877041F4C5010196EA89FB8944
:1020D000EA0DFB1DD4905C01D7FE3AC061E0C61248
:1020E00016C07981713099F4AA8DBB8DED91FC9168
:1020F00011970484F585E02D288539854C895D8903
:10210000688D798D670D711DCD01099521C08C8178
:102110009D81870D911DEA85FB858E9FB0018F9F64
:10212000700D9E9F700D1124620D731DAA8DBB8DC5
:10213000ED91FC9111970684F785E02DE884F984F0
:102140000E811F812A853B8548895989CD010995D2
:10215000DD0C73948E85B0CF450C63948DCFAA8D22
:10216000BB8DED91FC9111970688F789E02DCD018B
:102170006B960FB6F894DEBF0FBECDBFDF91CF9147
:102180001F910F91FF90EF90DF90CF90BF90AF9095
:102190009F908F907F906F905F904F903F902F9087
:1021A00009946B960FB6F894DEBF0FBECDBFDF91DA
:1021B000CF911F910F91FF90EF90DF90CF90BF9044
:1021C000AF909F908F907F906F905F904F903F90D7
:1021D0002F9008950895FC016370668B848195812A
:1021E00026813781613039F0633029F0918780870B
:1021F00033872287089531872087938782870895C0
:102200008F929F92AF92CF92EF92FF920F931F9374
:10221000CF93DF93EC01262F898D9A8D009709F0DB
:1022200042C06A3059F41D861C862D898E859F8593
:1022300038E0239F800D911D112443C06D3009F4B7
:10224000AAC08F898823C9F03C898C859D8546E08A
:10225000349F800D911D11244885598548175907D1
:1022600064F41D861C863D898E859F8548E0349FD9
:10227000800D911D11249F878E87EA88FB8808892D
:1022800019894E855F856C857D85AD88CC88CE01AA
:102290000E94B60E2C898C859D8536E0239F800D8B
:1022A000911D11243EC06A3079F41D861C862D894B
:1022B000FC013896E4918E859F852E9F800D911D9F
:1022C00011249F878E8767C06D3009F464C0FC01BC
:1022D00034963491631708F45EC03296E491E617A1
:1022E00008F459C0462F431B342FFC0132968590C9
:1022F000949047E0349F800C911C1124F401329695
:1023000034913196E491332311F0E1110DC0F401C1
:102310003496E4912C898C859D85E29F800D911DDA
:1023200011249D878C8737C0F401359644915F89CD
:10233000552319F15C89E32FF0E0E40FF11D47FD0F
:10234000FA955E9FB0015F9F700D11244C855D85ED
:10235000460F571F688579856417750774F41D86C5
:102360001C863D89FC013896E4918E859F853E9FB1
:10237000800D911D11249F878E87EA88FB8808892C
:1023800019894E855F856C857D85AD88CC88CE01A9
:102390000E94B60EBCCF81E090E0DF91CF911F91FB
:1023A0000F91FF90EF90CF90AF909F908F900895F6
:1023B0006F927F928F929F92AF92BF92CF92DF9255
:1023C000EF92FF920F931F93CF93DF93EC014B019A
:1023D0005A0169013801E881F9810284F385E02D11
:1023E0000995E881F9810288F389E02D870196013A
:1023F000A501B401CE010995A501460D571D415017
:102400005109E881F9810288F389E02D9601B40130
:10241000CE010995E881F9810088F189E02D9301C9
:10242000A501B401CE010995C80CD91CB6016150B3
:102430007109E881F9810088F189E02D9301A501F6
:10244000CE010995E881F9810688F789E02DCE0152
:10245000DF91CF911F910F91FF90EF90DF90CF9080
:10246000BF90AF909F908F907F906F9009948F92C4
:102470009F92AF92BF92CF92DF92EF92FF920F9313
:102480001F93CF93DF934C016B015A01E901DC01EB
:10249000ED91FC916217730781F40417150724F47A
:1024A0008B2D5801042F182F0A191B0998012F5F33
:1024B0003F4F048CF58DE02D12C04017510709F5F0
:1024C0002617370724F48D2D6901C62FD82F9E01BA
:1024D0002C193D092F5F3F4F068CF78DE02D8701AA
:1024E000A501B601C4010995DF91CF911F910F910C
:1024F000FF90EF90DF90CF90BF90AF909F908F9024
:1025000008950284F385E02D0995D401ED91FC91A5
:102510000488F589E02D9E01A501B601C401099545
:10252000D401ED91FC910688F789E02DC401DF917B
:10253000CF911F910F91FF90EF90DF90CF90BF90C0
:10254000AF909F908F900994EF92FF920F931F93FB
:10255000DC011A960D911C911B9718962D913C91B8
:102560001997ED91FC9100A0F1A1E02D7B0140E0D5
:1025700050E060E070E009951F910F91FF90EF909F
:1025800008954F925F926F927F928F929F92AF9237
:10259000BF92CF92DF92EF92FF920F931F93CF9350
:1025A000DF936C012B015A0139014801DC01ED91E7
:1025B000FC910284F385E02D0995E201640C751C01
:1025C000D601ED91FC91C615D7055CF40088F18920
:1025D000E02D87019401A501BE01C6010995219650
:1025E000EFCF0688F789E02DC601DF91CF911F91CB
:1025F0000F91FF90EF90DF90CF90BF90AF909F90A2
:102600008F907F906F905F904F9009948F929F92E0
:10261000AF92BF92CF92DF92EF92FF920F931F93F0
:10262000CF93DF93EC015B014A016901E881F981F5
:102630000284F385E02D099595012C0D3D1D215057
:102640003109E881F9810488F589E02D7801840158
:10265000A401B501CE010995E881F9810688F789C1
:10266000E02DCE01DF91CF911F910F91FF90EF9060
:10267000DF90CF90BF90AF909F908F9009948F92F2
:102680009F92AF92BF92CF92DF92EF92FF920F9301
:102690001F93CF93DF93EC015B014A01690178013D
:1026A000E881F9810284F385E02D0995C80CD91CD5
:1026B000860101501109E881F9810488F589E02D2E
:1026C0009501A401B501CE010995E881F98106883B
:1026D000F789E02DCE01DF91CF911F910F91FF90EF
:1026E000EF90DF90CF90BF90AF909F908F90099424
:1026F0000895EF92FF920F931F93DC01ED91FC91EF
:1027000000A0F1A1E02D09951F910F91FF90EF908E
:1027100008950F931F93DC01ED91FC91068CF78DCA
:10272000E02D09951F910F9108950F931F93DC01E0
:10273000ED91FC91048CF58DE02D09951F910F9181
:102740000895DC01ED91FC910084F185E02D099460
:102750002F923F924F925F926F927F928F929F92B1
:10276000AF92BF92CF92DF92EF92FF920F931F939F
:10277000CF93DF9300D000D000D0CDB7DEB72C01CF
:102780007E836D836A015901C801FC82EB82480196
:10279000841A950A97FE03C091948194910835019B
:1027A0002D813E81621A730A77FE03C07194619491
:1027B0007108681479045CF43A2D2B2D5C01832F89
:1027C000922F3D812E81DE82CD82C32ED22EAD810D
:1027D000BE81AA16BB065CF43C2D2D2D6C01832F07
:1027E000922F3D812E81BE82AD82A32EB22E850115
:1027F0002D813E81021B130B1C012C183D0837FE56
:1028000003C0319421943108780117FF03C03FEFD2
:10281000E31AF30AF594E794C816D9062CF08FEF63
:102820009FEF9A83898304C0A1E0B0E0BA83A983B3
:102830002D813E81A216B30624F1D201ED91FC91C7
:102840000484F585E02D2B813C816814790424F4FF
:102850004D815E81B60103C0A6016D817E81C201FA
:102860000995E218F308F7FE06C029813A81C20EE5
:10287000D31EE00EF11E8D819E8101969E838D8375
:10288000D7CF26960FB6F894DEBF0FBECDBFDF912F
:10289000CF911F910F91FF90EF90DF90CF90BF905D
:1028A000AF909F908F907F906F905F904F903F90F0
:1028B0002F90089581E080932E0284B1836084B9C3
:1028C0008AB18C6F8AB9389A399A3A9A3B9A3C9A6B
:1028D000439A409A419A449A62E370E080E090E023
:1028E0000E940816449864E670E080E090E00E9440
:1028F0000816449A64E670E080E090E00E940816B2
:1029000060E070E080EB90E00C9490081F93CF9310
:10291000DF93EC01162F80912E02811102C00E94DC
:102920005A144398429885B18C7F9D2F9370892BC0
:1029300085B98BB18370DC7FD82BDBB94198419A84
:1029400085B18C7F9C2F9370892B85B98BB1837057
:10295000CC7FC82BCBB94198419A429A84B18C7FE5
:1029600084B98AB183708AB961E070E080E090E058
:102970000E94081661E070E080E090E00E94081676
:10298000409A409840984098D3B1C9B1409A61E0CC
:1029900070E080E090E00E940816409A40984098CD
:1029A000409833B129B1409A115017FFE3CF409AB4
:1029B000439A84B1836084B98AB18C6F8AB98D2FB0
:1029C0008370CC7F8C2B90E0982F882733702C7FDE
:1029D000232B822BDF91CF911F9108950F931F938B
:1029E000CF93DF938C0160E00E948614EC0161E0DC
:1029F000C8010E948614AC01CE01A0E0B0E0DC0169
:102A00009927882760E070E08C019D01042B152B2D
:102A1000262B372BC901B801DF91CF911F910F9160
:102A20000895FF920F931F93CF93DF93EC0160E023
:102A30000E9486148C0161E0CE010E948614F82E5B
:102A400062E0CE010E94861420E030E0302F222781
:102A50001127002740E050E05F2D60E070E0042B7C
:102A6000152B262B372B492F50E060E070E0CB016F
:102A7000BA01602B712B822B932BDF91CF911F9189
:102A80000F91FF90089590E0FC01E057F84F2491DA
:102A9000FC01EC55F34F3491FC01EE53F34FE491FC
:102AA000EE2309F43CC0222339F1233091F038F4AD
:102AB0002130A9F0223001F584B58F7D12C0273076
:102AC00091F02830A1F02430B9F4809180008F7DFE
:102AD00003C0809180008F77809380000DC084B503
:102AE0008F7784BD09C08091B0008F7703C080913B
:102AF000B0008F7D8093B000F0E0EE0FFF1FE85430
:102B0000F34FA591B4919FB7F894611104C08C91D3
:102B10003095382302C0EC913E2B3C939FBF089523
:102B2000CF93DF9390E0FC01EC55F34F2491FC012F
:102B3000EE53F34F8491882361F190E0880F991F41
:102B4000FC01EA57F84FC591D491FC01E854F34FCA
:102B5000A591B491611109C09FB7F894888120951F
:102B600082238883EC912E230BC0623061F49FB7DF
:102B7000F8948881322F309583238883EC912E2B13
:102B80002C939FBF06C08FB7F894E8812E2B288323
:102B90008FBFDF91CF9108953FB7F89480913402B1
:102BA00090913502A0913602B091370226B5A89BCC
:102BB00005C02F3F19F00196A11DB11D3FBFBA2FCF
:102BC000A92F982F8827820F911DA11DB11DBC012F
:102BD000CD0142E0660F771F881F991F4A95D1F7F4
:102BE00008958E3008F08E508770806480937C004A
:102BF00080917A00806480937A0080917A0086FDCB
:102C0000FCCF809178002091790090E0922B08957C
:102C10008F929F92AF92BF92CF92DF92EF92FF92EC
:102C20006B017C010E94CC154B015C01C114D104E5
:102C3000E104F104F1F00E94CC15DC01CB0188190C
:102C40009909AA09BB09883E9340A105B10570F313
:102C500021E0C21AD108E108F10888EE880E83E06D
:102C6000981EA11CB11CC114D104E104F10419F790
:102C7000DDCFFF90EF90DF90CF90BF90AF909F900F
:102C80008F9008951F920F920FB60F9211242F93D9
:102C90003F938F939F93AF93BF9380913002909116
:102CA0003102A0913202B091330230912F0223E021
:102CB000230F2D3720F40196A11DB11D05C026E874
:102CC000230F0296A11DB11D20932F028093300285
:102CD00090933102A0933202B09333028091340278
:102CE00090913502A0913602B09137020196A11D54
:102CF000B11D8093340290933502A0933602B093B5
:102D00003702BF91AF919F918F913F912F910F907B
:102D10000FBE0F901F901895CF93DF9300D000D077
:102D200000D0CDB7DEB7789484B5826084BD84B519
:102D3000816084BD85B5826085BD85B5816085BDB6
:102D400080916E00816080936E001092810080916E
:102D500081008260809381008091810081608093F6
:102D60008100809180008160809380008091B1001B
:102D700084608093B1008091B00081608093B00046
:102D800080917A00846080937A0080917A008260DA
:102D900080937A0080917A00816080937A0080919C
:102DA0007A00806880937A001092C100E091580107
:102DB000F091590182E08083E0915401F091550136
:102DC0001082E0915601F09157018FEC80831092B0
:102DD0006001E0915C01F0915D0186E08083E0910B
:102DE0005A01F0915B01808180618083E0915A01FA
:102DF000F0915B01808188608083E0915A01F091BD
:102E00005B01808180688083E0915A01F0915B01D1
:102E100080818F7D80830E945A1460E080E090E082
:102E20000E948614883024E5920709F4DBC08032C2
:102E300034E5930709F4D9C08938994809F4D8C012
:102E400060E087E690E00E9486148734974409F496
:102E5000D2C08FEE90E00E9411156732734909F4D9
:102E6000CDC081EA90E00E94EE14613031E6730734
:102E700009F4C7C06F3F4FEF740719F406E215E17C
:102E8000EEC061157F4F19F400E215E1E8C08FEB49
:102E900090E00E941115673583E8780709F4B4C003
:102EA000613894E9790709F4B2C0613125E172070C
:102EB00009F4B0C0603235E1730731F3663245E1A1
:102EC0007407E1F2613855E1750709F4A6C0611590
:102ED000744109F4A5C084ED90E00E94EE146031C5
:102EE000734509F4A0C087ED90E00E94EE146133B1
:102EF000704809F49BC08EEF90E00E94EE14BB274F
:102F0000A92F982F872F8335904209F492C084E02F
:102F100090E00E94EE149B01811123C0611570485E
:102F200001F58091000190910101A0910201898336
:102F30009A83AB83AE014F5F5F4F63E089EB90E014
:102F40000E94E80760E080ED90E00E9486148939D5
:102F500029F08039C9F400E910E981C009E910E0DD
:102F60007EC0263265E1360709F488CF203F89E824
:102F7000380709F461C0223595E8390709F45FC0C4
:102F800021313C4A09F45EC083ED90E00E94EE14CA
:102F9000BB27A92F982F872F8336914909F455C055
:102FA00083ED90E00E94EE14CB013DE6370F323006
:102FB00008F44EC0783909F44BC0773709F448C09B
:102FC000763109F445C0633D710509F443C0833D82
:102FD000934D09F442C060E080E090E00E948614C6
:102FE0008C013DC008E014E53AC000E214E537C0AA
:102FF00009E812E134C007E413E831C007E213E93D
:103000002EC003E619E12BC007E513E828C001E84C
:1030100014E925C001E115E122C001E815E11FC056
:1030200004E118E61CC000E113E519C001E310E853
:1030300016C003E510E213C005E317E710C009E866
:1030400017E70DC001E11CEA0AC003E611E907C059
:103050008B0105C003ED10E002C003ED13ED0E94EB
:103060005A14109215021092140210931902009330
:103070001802013380E8180709F499C108F0A9C0C3
:10308000053325E4120709F463C108F043C0013198
:1030900045E1140709F438C1B0F40939110509F400
:1030A000BDC138F40130110509F07EC280E091E124
:1030B000CFC1043561E0160709F41BC10530154185
:1030C00009F4C4C171C2013895E1190709F419C2A4
:1030D000A8F4003235E1130709F42EC10632154178
:1030E00009F062C283E194E0909317028093160284
:1030F0008CE0E82EF12C05E212E05CC2023056E1D1
:10310000150709F4D4C10335104209F04DC287E117
:1031100094E1E1C1043188E6180709F424C198F567
:10312000083024E5120709F491C108F5073447E493
:10313000140709F448C10031134509F035C283E191
:103140009EE0909317028093160280EE91E0909398
:1031500000028093FF0180E491E09093FE01809350
:10316000FD0102E0E02EF12C03E212E023C207365B
:1031700067E6160709F42AC10930184609F014C297
:1031800082E091E173C1093897E7190709F403C197
:10319000A0F4053735E7130709F418C103381747BA
:1031A00009F002C282E091E1909317028093160227
:1031B00060E970E08EEB95E0E1C1033957E7150750
:1031C00009F4DFC10639174709F0EEC183E094E046
:1031D000B5C1083383E9180709F478C1B8F5053299
:1031E00023E9120709F43DC1B8F4003940E9140796
:1031F00009F4FCC038F40735134809F0D5C183E061
:1032000094E1F6C0023083E9180709F45CC100328A
:10321000134909F41BC1C8C1093223E9120709F493
:1032200058C150F4073243E9140709F428C10832A1
:10323000134909F416C1B8C1013363E9160709F44B
:1032400013C10533134909F40FC1AEC1093894E91C
:10325000190798F5073824E9120708F06DC1013401
:1032600033E9130709F441C138F40034134909F074
:103270009BC183E194E13BC1013864E9160709F47D
:1032800043C10638144909F08FC183E094E090935C
:1032900017028093160280EE91E0909300028093D3
:1032A000FF0180E491E09093FE018093FD012BE308
:1032B000E22EF12C02EA10E07DC1053095EB1907F2
:1032C00009F452C160F4053935E9130709F47EC0E9
:1032D00001311C4A09F068C183E194E1FCC0093066
:1032E00055EB150709F44DC10530154C09F43CC1E7
:1032F0005BC182E090E190931702809316026CE923
:1033000070E08AEE96E03AC183E090E09093170275
:103310008093160280EE91E0909300028093FF016B
:1033200080E491E09093FE018093FD0123E0E22E82
:10333000F12C07E312E03EC183E194E09093170281
:103340008093160296E0E92EF12C01E312E032C1DF
:1033500080E090E190931702809316026CE970E090
:103360008EE496E00BC183E094E090931702809383
:10337000160280EE91E0909300028093FF0180E4BA
:1033800091E09093FE018093FD0113E0E12EF12C7A
:1033900000E212E00FC183E194E090931702809362
:1033A0001602B1E4EB2EF12C0FED11E003C183E125
:1033B00094E19093170280931602A2E1EA2EF12C79
:1033C0000DEC11E0F7C083E196E102C081E094E1E9
:1033D000909317028093160281E08093430160E787
:1033E00070E08EE495E00E944408E2C083E194E13D
:1033F000909317028093160280EE91E09093000262
:103400008093FF0180E491E09093FE018093FD01A1
:10341000F2E0EF2EF12C0BEC11E0CCC083E194E153
:10342000909317028093160280EE91E09093000231
:103430008093FF0180E491E09093FE018093FD0171
:10344000EDE1EE2EF12C0EEA11E0B4C084E090E143
:10345000909317028093160268ED70E086E794E07F
:103460008DC080E091E102C080E090E1909317026E
:10347000809316026CEC70E08AEA93E07FC083E0F0
:1034800094E0909317028093160280E991E0909364
:1034900000028093FF0180EF90E09093FE01809303
:1034A000FD017EE1E72EF12C00E911E083C083E00D
:1034B00094E0909317028093160266E0E62EF12CBA
:1034C0000AE811E077C083E094E005C083E194E06E
:1034D00002C083E096E1909317028093160253E0B6
:1034E000E52EF12C07E811E065C083E194E09093AC
:1034F00017028093160245E6E42EF12C02E211E059
:1035000059C083E194E002C087E094E090931702F1
:103510008093160280EE91E0909300028093FF0169
:1035200080E491E09093FE018093FD0135E4E32E69
:10353000F12C0DED10E03EC083E194E09093170272
:103540008093160280EE91E0909300028093FF0139
:1035500080E491E09093FE018093FD019BE2E92ECF
:10356000F12C07E710E026C088E090E19093170265
:103570008093160260EB70E08AEF92E00E94C90827
:1035800017C080E090E1909317028093160260ECE0
:1035900070E08AE392E00E94C90880E991E090938C
:1035A00000028093FF0104C01092FE011092FD0101
:1035B00000E010E020911702822F82958F7090E03A
:1035C0008170992790931B0280931A0201151105AF
:1035D00081F069E070E08EE690E00E944408B70157
:1035E000C8010E94440866E070E088E690E00E940E
:1035F000440860E089EF91E00E94220B60E089EFCF
:1036000091E00E94ED08809118029091190288388B
:10361000944909F04AC11092420120EE3FEF40E088
:1036200050E060E070E089EF91E00E94E70AF090DE
:103630002402E090250280914301811107C080910E
:10364000160280FF03C08EE2F82EE12C8091180252
:10365000909119028230964119F40EE2F02EE12C7D
:1036600000E010E020E030E040E050E060E070E09A
:1036700089EF91E00E9459098091160280FD10C0E7
:1036800060E070E080912002909121020E949008F9
:1036900060E070E080912202909123020E949008E5
:1036A0004398429885B18C7F9E2D9370892B85B964
:1036B0009BB193708E2D8C7FE92EE82AEBB8419850
:1036C000419A85B18C7F9F2D9370892B85B99BB1D1
:1036D00093708F2D8C7FF92EF82AFBB84198419A70
:1036E000429A84B18C7F84B98AB183708AB920915F
:1036F000160230911702809118029091190226FD4E
:1037000014C0409A40984098409843B149B1409ABB
:1037100020FD0BC0893842E1940739F0409A409867
:103720004098409843B149B1409A8131954139F46C
:10373000409A40984098409883B189B1409AB90125
:1037400064707727409A40984098409843B124FF8E
:1037500030C089B143708C7F482B409A409A409882
:103760004098409883B159B1409A409A4098409807
:10377000409893B189B193708C7F982B409A852F94
:103780008C7F672B59F0987F68E0869F7001112429
:10379000F92A469546954695E42A37C0487F58E071
:1037A000859F70011124F42A969596959695E92A9D
:1037B0002CC099B1409A409A40984098409853B193
:1037C00089B153708C7FE52EE82A409A4370892F87
:1037D0008C7F842BF12CF82A23FF03C0FE24EF24D6
:1037E000FE24672B91F0A701407E5770C701892FF7
:1037F0009927869586958695842B952BFE2CEE240D
:10380000FF0CFF0CFF0CE82AF92A80914201882363
:1038100099F0A701407CC70188279470F5E0969540
:103820008795FA95E1F76FE3E622FF24F694E79493
:10383000E82AF92AE42AF52A409A439A84B1836057
:1038400084B98AB18C6F8AB920FD14C0009103023B
:1038500010910402015011092091010230910202DD
:103860002150310940E050E060E070E089EF91E0E4
:103870000E9459098FE1E8168FEFF806B1F486E04F
:103880008983AE014F5F5F4F61E08AE390E00E9461
:10389000E80780911602909117028F7E909317028D
:1038A0008093160281E08093420160E089EF91E00D
:1038B0000E94220B8FE090E0909306028093050215
:1038C0008DE790E0909308028093070260E070E03B
:1038D00089EF91E00E940807E12C48EFF42E00E503
:1038E00010E020EA30E040E550E068E270E089EF67
:1038F00091E00E94280A50EEE52E57E0F52E0CE3E9
:1039000010E02CE330E048EC50E068E270E089EF32
:1039100091E00E94280AE12C68EFF62E2CE330E0BB
:1039200048EC50E068E770E089EF91E00E94280AD7
:1039300061E08DE00E949015CC24CA9473E0D72EEC
:10394000E1E18E2EEDEF9E2EAA24AA94BA2C60E01F
:103950008091E7010E94901560E08091E8010E944B
:10396000901561E08091EA010E94901561E08091DC
:10397000E9010E9490159091F501E091ED01F0911F
:10398000EE018081892B80838091F601E091F10125
:10399000F091F20190818095892380838091E701E5
:1039A0000E94F1158C018091E7010E94F1159801A8
:1039B000281B390B2C5F3F4F2930310538F4800F1D
:1039C000911F9595879521E02C8301C01C82A6014B
:1039D000481B590B5E834D8360E08091EA010E9491
:1039E000901560E08091E9010E94901561E080915E
:1039F000E7010E94901561E08091E8010E94901516
:103A00008091F801E091F301F091F40190818095AB
:103A1000892380839091F701E091EF01F091F0010B
:103A20008081892B80838091E9010E94F1158C01AE
:103A30008091E9010E94F1157C01C8018E199F094E
:103A40000496099728F4E00EF11EF594E79401C05E
:103A50001C8261E08091EA010E94901560E08091F3
:103A6000E7010E9490158091F501E091ED01F09140
:103A7000EE0190818095892380839091F801E091F7
:103A8000F301F091F4018081892B80838091E90119
:103A90000E94F1158C018091E7010E94F1152090A0
:103AA000EB013090EC0121143104E9F1BC01990FD4
:103AB000880B990B0E9470202B013C01B801110F5B
:103AC000880B990B0E9470209B01AC01C301B201CD
:103AD0000E94C61F20E030E040E85FE30E94591FCB
:103AE0002B013C012D813E81B901330F880B990BCD
:103AF0000E947020A30192010E94FC202B013C0136
:103B0000B10180E090E00E946E20A30192010E942A
:103B1000FC2020E030E040E85AE30E94FC200E94B4
:103B200038208B0106C0BC01601B710B8601061B8F
:103B3000170B3C81311102C000E010E061E08FE022
:103B40000E94901561E080E10E94901561E08FE095
:103B50000E94431561E080E10E9443150250110963
:103B600006351B41B8F5A0910102B09102028D818A
:103B70009E81AC01990F660B770B9A01AB012E5910
:103B80003109410951090E941A1F22EE32E040E03A
:103B900050E00E94F01E30934701209346019601A9
:103BA0002E193F09C901330FAA0BBB0B9C01AD01B4
:103BB000225A334041095109A0910302B0910402F5
:103BC0000E941A1FA50194010E94F01E3093450126
:103BD0002093440180914601909147019C01285215
:103BE00031092D333105D8F420914401309145013C
:103BF000285C31092D33310590F490EEE92E97E0E1
:103C0000F92E00E510E020EA30E040E550E068E2FF
:103C100070E089EF91E00E94280A61E01CC089579A
:103C20009109CC97D8F48091440190914501885C2A
:103C30009109CD9798F4E12C88EFF82E00E510E07B
:103C400020EA30E040E550E068E270E089EF91E082
:103C50000E94280A60E08DE00E9443150E94D3066E
:103C600076CEE8E4F1E01382128288EE93E0A0E0E1
:103C7000B0E084839583A683B78387E091E0918346
:103C8000808385EC90E09587848784EC90E097872B
:103C9000868780EC90E0918B808B81EC90E0938B19
:103CA000828B82EC90E0958B848B86EC90E0978BF6
:103CB000868B118E128E138E148EE9EFF1E0138233
:103CC000128220EF30E03583248380E491E09783F3
:103CD00086833187208793878287168A1586148684
:103CE0001786168681E0858B848B2FEF3FEF338B11
:103CF000228B318B208B878B108E128E118E89E157
:103D000091E091838083A5EEB1E08FE012968C93D1
:103D1000129780E114968C93149787E013968C93F6
:103D2000139786E015968C9315978CE291E0179681
:103D30009C938E931697E8ECFCE0E491F0E0EE0F94
:103D4000FF1FE854F34F8591949119969C938E939D
:103D50001897E1EDFCE0E491F0E0EE0FFF1FE8546E
:103D6000F34F859194911B969C938E931A97E2ED55
:103D7000FCE0E491F0E0EE0FFF1FE854F34F859173
:103D800094911D969C938E931C97E9ECFCE0E49132
:103D9000F0E0EE0FFF1FE854F34F859194911F96CA
:103DA0009C938E931E97EAEAFCE0E4915096EC9384
:103DB0005097E3EBFCE0E4915296EC935297E4EBDE
:103DC000FCE0E4915196EC935197EBEAFCE0E4912E
:103DD0005396EC9353978AE090E08D939C930895CB
:103DE000052E97FB1EF400940E94071F57FD07D075
:103DF0000E94221F07FC03D04EF40C94071F50951D
:103E00004095309521953F4F4F4F5F4F08959095C6
:103E10008095709561957F4F8F4F9F4F08950E94B9
:103E2000441FA59F900DB49F900DA49F800D911DE0
:103E300011240895B7FF0C940F1F0E940F1F821BBF
:103E4000930B0895A1E21A2EAA1BBB1BFD010DC006
:103E5000AA1FBB1FEE1FFF1FA217B307E407F5073A
:103E600020F0A21BB30BE40BF50B661F771F881F16
:103E7000991F1A9469F760957095809590959B01AC
:103E8000AC01BD01CF010895A29FB001B39FC00155
:103E9000A39F700D811D1124911DB29F700D811D76
:103EA0001124911D0895EE0FFF1F0590F491E02D50
:103EB00009945058BB27AA270E94711F0C94C22056
:103EC0000E94B42038F00E94BB2020F039F49F3FBC
:103ED00019F426F40C94B1200EF4E095E7FB0C9451
:103EE000AB20E92F0E94D32058F3BA17620773075B
:103EF0008407950720F079F4A6F50C94F5200EF4CC
:103F0000E0950B2EBA2FA02D0B01B90190010C01E9
:103F1000CA01A0011124FF27591B99F0593F50F401
:103F2000503E68F11A16F040A22F232F342F442759
:103F3000585FF3CF469537952795A795F040539551
:103F4000C9F77EF41F16BA0B620B730B840BBAF021
:103F50009150A1F0FF0FBB1F661F771F881FC2F78C
:103F60000EC0BA0F621F731F841F48F487957795A0
:103F70006795B795F7959E3F08F0B0CF9395880F5A
:103F800008F09927EE0F9795879508950E94DA1FFC
:103F90000C94C2200E94BB2058F00E94B42040F034
:103FA00029F45F3F29F00C94AB2051110C94F620BA
:103FB0000C94B1200E94D32068F39923B1F35523C8
:103FC00091F3951B550BBB27AA276217730784072C
:103FD00038F09F5F5F4F220F331F441FAA1FA9F3C2
:103FE00035D00E2E3AF0E0E832D091505040E695B0
:103FF000001CCAF72BD0FE2F29D0660F771F881F11
:10400000BB1F261737074807AB07B0E809F0BB0B03
:10401000802DBF01FF2793585F4F3AF09E3F510517
:1040200078F00C94AB200C94F6205F3FE4F3983EBC
:10403000D4F3869577956795B795F7959F5FC9F700
:10404000880F911D9695879597F90895E1E0660F81
:10405000771F881FBB1F621773078407BA0720F0FA
:10406000621B730B840BBA0BEE1F88F7E095089563
:104070000E943F206894B1110C94F62008950E948C
:10408000DB2088F09F5798F0B92F9927B751B0F0EF
:10409000E1F0660F771F881F991F1AF0BA95C9F7CC
:1040A00014C0B13091F00E94F520B1E008950C9455
:1040B000F520672F782F8827B85F39F0B93FCCF308
:1040C000869577956795B395D9F73EF49095809549
:1040D000709561957F4F8F4F9F4F0895E89409C069
:1040E00097FB3EF490958095709561957F4F8F4F2B
:1040F0009F4F9923A9F0F92F96E9BB279395F69541
:10410000879577956795B795F111F8CFFAF4BB0FBE
:1041100011F460FF1BC06F5F7F4F8F4F9F4F16C022
:10412000882311F096E911C0772321F09EE8872FAC
:10413000762F05C0662371F096E8862F70E060E068
:104140002AF09A95660F771F881FDAF7880F9695E1
:10415000879597F9089597F99F6780E870E060E088
:1041600008959FEF80EC089500240A941616170610
:1041700018060906089500240A9412161306140658
:1041800005060895092E0394000C11F4882352F0BB
:10419000BB0F40F4BF2B11F460FF04C06F5F7F4F73
:1041A0008F4F9F4F089557FD9058440F551F59F05A
:1041B0005F3F71F04795880F97FB991F61F09F3F14
:1041C00079F087950895121613061406551FF2CF3D
:1041D0004695F1DF08C0161617061806991FF1CF8D
:1041E00086957105610508940895E894BB276627B4
:1041F0007727CB0197F908950E940F210C94C220D4
:104200000E94B42038F00E94BB2020F0952311F0CA
:104210000C94AB200C94B12011240C94F6200E9435
:10422000D32070F3959FC1F3950F50E0551F629F07
:10423000F001729FBB27F00DB11D639FAA27F00DFF
:10424000B11DAA1F649F6627B00DA11D661F829F26
:104250002227B00DA11D621F739FB00DA11D621F0B
:10426000839FA00D611D221F749F3327A00D611D28
:10427000231F849F600D211D822F762F6A2F11240A
:104280009F5750409AF0F1F088234AF0EE0FFF1F3D
:10429000BB1F661F771F881F91505040A9F79E3F94
:1042A000510580F00C94AB200C94F6205F3FE4F3B2
:1042B000983ED4F3869577956795B795F795E795EA
:1042C0009F5FC1F7FE2B880F911D9695879597F9F3
:1042D000089581E090E0F8940C946E21F894FFCF5B
:1042E000FF83570000000079075A0E9606C607C7DD
:1042F00006A506B9060000000000115A0E050704C5
:1043000007E70A7813A113791395138913A8137873
:1043100013220BED08F006DD06280A08073712D82D
:0243200011008A
:00000001FF
